:020000040800F2
:10000000203E0020690200085F36000843290008EE
:100010005D360008E10A00084D42000800000000BB
:10002000000000000000000000000000D1010008F6
:10003000110D00080000000015020008353C000802
:10004000830200088302000883020008830200087C
:10005000830200088302000883020008830200086C
:10006000130D0008830200088302000883020008C1
:10007000830200088302000883020008830200084C
:10008000830200088302000883020008830200083C
:10009000830200088302000883020008190D00088B
:1000A000830200088302000883020008830200081C
:1000B00083020008C13C0008830200088302000894
:1000C00083020008830200088302000883020008FC
:1000D00083020008830200088302000841420008EE
:1000E00083020008830200088302000800F002F87F
:1000F00000F05FF80AA090E8000C82448344AAF163
:100100000107DA4501D100F054F8AFF2090EBAE860
:100110000F0013F0010F18BFFB1A43F0010318473B
:100120001CAD00003CAD00000A444FF0000C10F87C
:10013000013B13F0070408BF10F8014B1D1108BF65
:1001400010F8015B641E05D010F8016B641E01F805
:10015000016BF9D113F0080F1EBF10F8014BAD1C55
:100160000C1B09D16D1E58BF01F801CBFAD505E073
:1001700014F8016B01F8016B6D1EF9D59142D6D3CD
:10018000704700000023002400250026103A28BFF5
:1001900078C1FBD8520728BF30C148BF0B607047F9
:1001A000782900F0E780002070471FB51FBD10B50B
:1001B00010BD00F0A7FB1146FFF7F7FF05F093FB1A
:1001C00000F0C5FB03B4FFF7F2FF03BC00F0C8FB6F
:1001D000224B19680868B0E8F00F80F30988BFF374
:1001E0006F8F4FF0000080F311884EF00D0E7047B6
:1001F0000000000006480068006880F3088862B6C6
:1002000061B6BFF34F8FBFF36F8F00DF00BF00BF3A
:1002100008ED00E0EFF30980BFF36F8F0F4B1A6812
:1002200020E9F00F106008B54FF0500080F31188FE
:10023000BFF34F8FBFF36F8F07F0ECFA4FF0000062
:1002400080F31188BDE8084019680868B0E8F00F2D
:1002500080F30988BFF36F8F704700BF1400002040
:10026000EFF30580704700000948804709480047C0
:10027000FEE7FEE7FEE7FEE7FEE7FEE7FEE7FEE756
:10028000FEE7FEE704480549054A064B70470000B3
:10029000BF3C0008ED00000820380020203E002070
:1002A000203A0020203A002010B54C1084EA530474
:1002B00004D54042C1F1000138BF491E1B4204D59C
:1002C0005242C3F1000338BF5B1E00F0BEF914F0C8
:1002D000804F04D04042C1F1000138BF491E14F0E4
:1002E000004F04D05242C3F1000338BF5B1E10BD63
:1002F0000FB41CB50C0007AA009001D02044401E8A
:10030000074B7B4469460190069800F07EFA002C6A
:1003100003D06946002000F08BFA1CBC5DF814FB8A
:100320003505000070B5044685690068C10601D531
:10033000302600E02026C00707D070BDD4E9012197
:1003400030469047206A401C20626D1EF6D570BD75
:1003500070B5044685690078C00707D170BDD4E93F
:10036000012120209047206A401C20626D1EF6D596
:1003700070BD000070B504460D4621461068AFF30D
:1003800000802188090502D50F4A7A4402E00E4A0E
:100390007A440E32002104F1240305E000F00F0638
:1003A0000009965D5E54491C0028F7D1207800238F
:1003B000000704D5702D02D009B102231132204666
:1003C000BDE8704000F0C3B974A900002DE9F05FEA
:1003D000894604464FF0000ADFF824B1FB44C0F818
:1003E00020A02046E168884700287DD0252806D037
:1003F000D4E901219047206A401C2062F1E70025E2
:100400005F462046E16888472028064607DB312EF4
:1004100005D2B81910F8200C08B10543F1E7A80778
:1004200001D525F00405C4F81CA00027C4F818A0C5
:100430002A2E09D0304603F0CFFF38B304EB8708EB
:10044000303EC8F8186019E059F8041B204604EB48
:1004500087029161E1688847012F064618D1E0695B
:10046000002820DA25F020051DE0D8F8180000EB60
:10047000800006EB40003038C8F818002046E168DC
:100480008847064603F0A8FF0028EED1012F0AD0C6
:100490002E2E08D12046E16888477F1C0646022F91
:1004A00045F02005C4DBA069002803DA404245F08E
:1004B0000105A061E80701D025F01005A6B1A6F15D
:1004C0004100192802D8203645F400654A463146D5
:1004D000204625604D46FFF763FE60B1012807D036
:1004E000ED1D25F0070000E007E000F1080978E7BE
:1004F00005F1040975E730467AE7206ABDE8F09F08
:100500004AA9000040EA010310B59B070FD1042A55
:100510000DD310C808C9121F9C42F8D020BA19BACE
:10052000884201D9012010BD4FF0FF3010BD1AB133
:10053000D30703D0521C07E0002010BD10F8013B88
:1005400011F8014B1B1B07D110F8013B11F8014BAF
:100550001B1B01D1921EF1D1184610BD032A40F297
:10056000308010F0030C00F0158011F8013BBCF155
:10057000020F624498BF11F801CB00F8013B38BF6D
:1005800011F8013BA2F1040298BF00F801CB38BF7B
:1005900000F8013B11F0030300F05781083AC0F066
:1005A000088051F8043B083A51F804CBA0E8081041
:1005B000F5E7121D5CBF51F8043B40F8043BAFF374
:1005C0000080D20724BF11F8013B11F801CB48BFCE
:1005D00011F8012B24BF00F8013B00F801CB48BF04
:1005E00000F8012B704702F0FF0343EA032242EABE
:1005F000024200F05EB94FF0000200B51346944687
:100600009646203922BFA0E80C50A0E80C50B1F16A
:100610002001BFF4F7AF090728BFA0E80C5048BF7E
:100620000CC05DF804EB890028BF40F8042B08BF1C
:10063000704748BF20F8022B11F0804F18BF00F818
:10064000012B704770477047704753EA020C00F067
:1006500069802DE9F04B4FF00006002B1FBFB3FA65
:1006600083F503FA05F424FA05F65E4012BF16433B
:10067000B2FA82F502FA05F4C5F120051EBF22FA8E
:1006800005FC44EA0C04203556EA044C4FEA1444B5
:1006900018BF641C4FF000084FF00009904271EB46
:1006A000030C39D3002919BFB1FA81F701FA07F613
:1006B000B0FA80F700FA07F6C7F120071EBF20FA4C
:1006C00007FC46EA0C062037B6FBF4FCA7EB05074F
:1006D000103F07F01F0BCBF120060CFA0BFB2CFA96
:1006E00006F644BFB3460026202FA4BF5E464FF057
:1006F000000B5BEA060C08BF4FF0010B19EB0B096E
:10070000ABFB027C48EB0608C01B06FB02CC0BFBD4
:1007100003CC71EB0C01C1E70B460246414648464B
:10072000BDE8F08B13B54FF000004FF00001AFF3C0
:100730000080BDE81C40704710B500F0DBF8006891
:1007400010BD10B5044600F0D5F8046010BD2DE9C9
:10075000F0470D4699469246044600F12408016888
:10076000880604D5E06921F01001216000E0012035
:10077000A84201DD471B00E00027A1697A1902EBBE
:100780000900081AA0612078C00602D42046FFF7AD
:10079000C9FD002608E0D4E901211AF806009047B7
:1007A000206A401C761C20624E45F4DB2078C0068F
:1007B0000AD52046FFF7B6FD06E0D4E90121302036
:1007C0009047206A401C2062381EA7F10107F4DC24
:1007D00007E0D4E9012118F805009047206A401C81
:1007E0002062281EA5F10105F3DC2046FFF7B0FDCD
:1007F0002078000602D50220BDE8F0870120FBE743
:1008000001694A1C02610878704700B58FB0CDE9D4
:1008100001310021059105497944CDE903101146C4
:100820006846FFF7D3FD0FB000BD0000E5FFFFFFF6
:100830000A6802F8010B0A607047D1E900239A4266
:1008400002D2531C0B601070704710B5203AC0F0F4
:100850000B80B1E81850203AA0E81850B1E81850C1
:10086000A0E81850BFF4F5AF5FEA027C24BFB1E8FE
:100870001850A0E8185044BF18C918C0BDE810406F
:100880005FEA827C24BF51F8043B40F8043B08BF78
:100890007047D20728BF31F8023B48BF11F8012B3F
:1008A00028BF20F8023B48BF00F8012B70474FF0EB
:1008B00000020429C0F0128010F0030C3FF49DAE3A
:1008C000CCF1040CBCF1020F18BF00F8012BA8BF3B
:1008D00020F8022BA1EB0C01FFF78FBE5FEAC17C71
:1008E00024BF00F8012B00F8012B48BF00F8012BB2
:1008F0007047000000487047C0370020004870472C
:10090000C03700207546FFF7F9FFAE46050069467F
:10091000534620F00700854618B020B5FFF7B2FC1B
:10092000BDE820404FF000064FF000074FF00008F0
:100930004FF0000B21F00701AC46ACE8C009ACE871
:10094000C009ACE8C009ACE8C0098D46704710B5D5
:100950000446AFF300802046BDE81040FFF732BCEC
:1009600001491820ABBEFEE72600020070470000D8
:100970000EB50123CDE90013642202920246102332
:10098000A021024800F032FD0EBD00005001002001
:1009900008B500208DF800004FF4FA7006F0A0FDB5
:1009A0001C4E4FF0FF31306807F00AFA1A4C01284C
:1009B00021D10020A12100F033F868B900250A23D5
:1009C0000122A021154800F05BFCE8B1012006F0EF
:1009D00087FD6D1C0A2DF2DBEF2020706946002098
:1009E000FFF7C6FF90B1BB20002320701A461946BE
:1009F000306807F03BF84FF47A7561782846491C57
:100A0000617006F06DFDF8E7A120E6E79DF80000B3
:100A1000EAE70000B4000020EE00002050010020B2
:100A200003B583B06423012204A98DE80E000246B9
:100A30001023A021024800F001FE05B000BD000017
:100A4000500100200EB507F009FB20490122086083
:100A50001F49204801F03AFF00261F4F1F4D4FF05D
:100A600046084FF042094FF0520A01244FF04C0B58
:100A70004FF0FF31012006F0CFFB00960196029661
:100A80003878472806D04B2809D04A280CD0482867
:100A90000FD012E08DF800408DF804800DE08DF845
:100AA00001408DF8049008E08DF803408DF804A013
:100AB00003E08DF802408DF804B028680028D7D0F4
:100AC00000231A46694606F0D1FFD1E7E80000206E
:100AD000EC0000207C020020ED000020C00000207F
:100AE000FEE70000010019D00D4808600D4848607D
:100AF0000D4888600D48C8600D4808610D48486180
:100B00000D4888610020C861086281F8240088626D
:100B1000C862C8630864086348638863704700005C
:100B20000000F0C2000040BFCDCC8CBF5839B4BB30
:100B3000000020419A99193F000040C00EB50021E5
:100B40005F4801F0BFFC0C215D4801F0BBFC5D4833
:100B5000FFF7C8FF07F096FA5B4F5A4CDFF86CA11D
:100B6000B86004F140000190001F0090DFF860B110
:100B70002438DFF860914FF00008A4F14406A4F196
:100B80002805029050487968083006F0CFFC4D499E
:100B900000224439DAF8000007F076F84A490022CA
:100BA0000C31DBF8000007F06FF84B480022464993
:100BB000006807F069F8494842490022283900686E
:100BC00007F062F8287810B1012806D00EE06878A6
:100BD00060B94046C4F8288018E041493868884226
:100BE000A06A01DA401C00E0401EA062687801287B
:100BF00002D1A06A401CA062A16A0C2901DD0C2070
:100C000004E06FF00B00814200DB0846A062A87888
:100C100008B9E97821B1C4F81480012805D007E0AB
:100C20003048C4F82C80606111E0E06A1E30E06258
:100C3000E878012802D1E06A1E38E062E16A96296C
:100C400001DD962004E06FF09500814200DBE06A50
:100C5000E062B6F90C0008F017FB0246194871680B
:100C600003F0F5FA2063A16B421A0844C4E90F208F
:100C7000DDE9000102F09CF9311D029802F0C2FF8B
:100C8000D4E90F0102F0AAF9D9F8000000283FF4D6
:100C900079AF0C49E26B1C390A61226C4A610A4A3D
:100CA0000C321368CB6052688A6072680A603A68D6
:100CB0004A602A790A760223002206F0D7FE61E70D
:100CC000A40100206C370020A0000020B800002004
:100CD000BC000020C4000020C8000020C00000208C
:100CE000000048429A99193F064A10B553680649D0
:100CF000064C0968B1FBF4F141435068C01A8842C0
:100D0000FBD310BD001000E01000002040420F0097
:100D10007047042000F0E4B8202000F0E1B80000A3
:100D200008B53C21104801F001FA3C210F4801F0C0
:100D3000FDF907F0A7F90E4C0E4D261F00900A484A
:100D400002F0E0FE2060094802F0DCFE40426060F4
:100D5000286820B102230022054906F087FE684674
:100D6000316806F0E3FBEAE7EC01002034020020E2
:100D700098000020BC00002072B6FEE710B590F885
:100D800021100022022905D00421816380F820204F
:100D9000012010BD01680B6823F00E030B60016891
:100DA0000B6823F001030B6090F84030C46B012105
:100DB00001FA03F3636080F8211080F820201046C8
:100DC00010BD000010B590F821100024022903D0B6
:100DD0000421816301243DE001680A6822F00E02CB
:100DE0000A6001680A6822F001020A601A4A016872
:100DF000914201D1012121E0174A1432914201D1DF
:100E000010211BE0144A2832914201D1891515E0C6
:100E1000114A3C32914201D189140FE00E4A5032FE
:100E2000914202D14FF4803108E00B4A6432914282
:100E300002D14FF4801101E04FF08071064A083A68
:100E40005160012180F82110002180F82010416BB1
:100E500001B18847204610BD0800024070B5044625
:100E600000F044F90546601C02D0044800780444B0
:100E700000F03CF9401BA042FAD370BD04000020F2
:100E800008B504281ED10020009004210F4800F06E
:100E900023F90F4A01280F49506814D088600120B7
:100EA00008700D48006810B1694606F093FB009881
:100EB000002807D009494FF080500860BFF34F8FDA
:100EC000BFF36F8F08BD4860F1E7000000080140E4
:100ED000001000E044010020E000002004ED00E0EC
:100EE000044910B50A68024202D00860FFF7C8FF43
:100EF00010BD0000140401402DE9F84FDFF8B8914F
:100F00000024A9F1040B23460F2709F1040AABF1D1
:100F1000040EC9E00125A5402A40AA427DD1674EB2
:100F2000D1F804C0ACEB0608B44532D014DCBCF1F7
:100F3000030F3AD009DCBCF1000F2AD0BCF1010F3D
:100F40001CD0BCF1020F31D11DE0BCF1110F17D044
:100F5000BCF1120F2AD119E0B8F5881F19D006DCB0
:100F6000B8F5803F15D0B8F5801F1FD111E0B8F556
:100F7000001F0ED0B8F5041F18D10AE0CB6815E0A9
:100F8000CB681B1D12E0CB6808330FE0CB680C3335
:100F90000CE08B682BB1012B4FF0080303D04561A7
:100FA00004E0042302E0056100E00023FF2A01D8E9
:100FB000064601E000F104064FEA840501D9A5F1D7
:100FC0002005D6F8008007FA05FC28EA0C0803FA89
:100FD00005F548EA0508C6F800804D68ED0062D5C1
:100FE000374DAE6946F00106AE61AD6924F00306E7
:100FF00005F001050095334D06EB050CDCF80850B3
:10100000A607360F07FA06F825EA0805DFF8B880C4
:10101000404503D14FF0000817E044E0DFF8AC8012
:10102000404502D14FF001080FE0DFF8A4804045B1
:1010300002D14FF0020808E0DFF89880404502D165
:101040004FF0030801E04FF0040808FA06F848EAF8
:101050000508CCF808804D68D9F80060ED024D46CF
:1010600001D5164300E096432E604D68DAF8006023
:10107000AD02554601D5164300E096432E604D68FB
:10108000DBF80060AD035D4601D5164300E09643F2
:101090002E604D68DEF80060ED03754601D51643FD
:1010A00000E096432E60641C0D682A46E5407FF4FC
:1010B00031AFBDE8F88F00000804014000001110B6
:1010C000001002400000014000080140000C0140F7
:1010D00000100140001401408068084000D0012049
:1010E00070470AB1016170470904FBE70148806855
:1010F000704700000400002070B5040025D094F86B
:101100003D00002520B984F83C50204600F02EFB1D
:10111000242084F83D002068016821F0010101606D
:101120002068016841F4004101602068016821F4F1
:101130000041016000F0D2FC4D4A6168914201D843
:101140004C4900E04C49884201D2012070BD4B4916
:101150002368B0FBF1F15E6826F03F060E435E6047
:101160006368934206D94FF4967359434FF47A73E8
:10117000B1FBF3F12368491C1E6A26F03F06314398
:1011800019626168914210D84900401EB0FBF1F22B
:10119000521CC2F30B02042A01D2042022E0B0FB4D
:1011A000F1F0401CC0F30B001CE0A268F2B301EBAD
:1011B000C10303EB0116431EB3FBF6F35B1C43F4C0
:1011C00080431B0549D092B301EBC10202EB011130
:1011D000401EB0FBF1F0401CC0F30B0040F4804017
:1011E00040F400402168CA694CF6FF739A431043EB
:1011F000C861D4E9071001432068026822F0C002E8
:1012000011430160D4E9030101432068826848F278
:10121000FF339A4311438160D4E9050108432168F3
:10122000CA6822F0FF021043C86001E00EE016E039
:101230002068016841F0010101602564202084F8E4
:101240003D00256384F83E50002070BD01EB41064F
:10125000431EB3FBF6F35B1CB3E70120C2E701EBCF
:101260004101401EB0FBF1F0401CC0F30B00B7E79A
:10127000A086010080841E0000093D0040420F004E
:101280002DE9FF4F81B089460446FFF72FFF054641
:1012900094F83D004FF0000820287DD11923012249
:1012A00050492046009501F063FC002874D194F861
:1012B0003C00012870D0012084F83C0020680168BF
:1012C000C90703D1016841F001010160206801688C
:1012D00021F400610160242084F83D00002626648A
:1012E0004148E0624FF0011B20272068016841F46B
:1012F000807101600095002259462046049B01F050
:1013000037FC50B120680068C00502D54FF400706A
:101310002064032005B0BDE8F08F216809F0FE00CD
:101320000861FFF7E3FE2168054648694969C0F393
:101330004000C1F380214FF0A00A0FE0FFF7D6FE76
:10134000411B0498814200D808B984F83DA0216867
:1013500048694969C0F34000C1F3802194F83D20F9
:10136000A02A02D008B90029E8D084F83D7020688E
:101370004169C943890716D4016841F400710160CD
:101380002068416980691923012216492046009589
:1013900001F0EEFBB8B900E021E084F83D7084F87C
:1013A0003C600020B6E7016841F4007101602168EB
:1013B0006FF480604861192301220A492046009594
:1013C00001F0D6FB08B10120A4E7039808F1010859
:1013D00080458AD384F83D7084F83C60F3E70220AE
:1013E00098E70000020010000000FFFF2DE9FF4F0A
:1013F00083B00025DDE910799A4693460446DDF86E
:1014000048800095FFF772FE064694F83D002028BC
:101410007CD11923012285492046009601F0A8FBC2
:101420000028F5D194F83C0001286FD0012084F801
:101430003C0020680168C90703D1016841F001013F
:1014400001602068016821F400610160222084F8B5
:101450003D00402084F83E0025646762A4F82A908D
:10146000608D20857248E062CDE9008653465A4679
:101470002046049901F07EFA00287DD1208DDFF806
:10148000B491202768B1012814D00228206801688F
:101490001ED041F48061016020684169806900903C
:1014A000B6E02068416981690091016841F40071EA
:1014B0000160ADE02068016821F48061016072B6CE
:1014C0002068416981690091016841F400710AE076
:1014D00041F40061016072B6206841698169009140
:1014E000016821F48061016062B691E0032868D848
:1014F00001280CD0022843464FF0000249462046FE
:1015000000960FD001F034FBB0BB10E08BE0324608
:101510004146204601F0D2FB70BB20680069616A39
:1015200008706CE001F024FB30BB72B634E0206838
:10153000016821F48061016072B620680069616A07
:101540000870606A401C6062208D401E2085608D9E
:10155000401E6085384846F2A8110068B0FBF1F0E3
:10156000C0EBC00000EB80000090401E009008D04F
:1015700020684069C04300E029E040070CD500988E
:10158000F3E744F8305F6773A573206940F02000EB
:10159000206162B625731AE02068016841F4007189
:1015A000016020680069616A0870606A401C6062BE
:1015B000218D491E2185618D491E618562B6216894
:1015C0001BE032464146204601F078FB18B101206D
:1015D00007B0BDE8F08F20680069616A0870606A32
:1015E000401C6062218D491E2185618D491E6185E7
:1015F00021684A69D24352070AD409690170606AB6
:10160000401C6062208D401E2085608D401E6085DC
:10161000208D00287FF46AAF84F83D7084F83E5036
:1016200084F83C50D4E70220D2E70000020010000A
:101630000000FFFF04000100100000202DE9FF4F13
:1016400083B09A46DDE9119793460446DDF8408061
:10165000FFF74CFD054694F83D0020287FD1192363
:10166000012240492046009501F082FA002876D1F7
:1016700094F83C00012872D0012084F83C002068D6
:101680000168C90703D1016841F0010101602068C8
:10169000016821F400610160212084F83D004020B0
:1016A00084F83E0000262664C4F82480A4F82A901A
:1016B000608D20852C48E062CDE9007553465A467E
:1016C0002046049901F0D4F970B930E02A46394631
:1016D000204601F02BFB58B1206C042804D120686F
:1016E000016841F400710160012007B0BDE8F08F8E
:1016F000606A216800780861606A401C6062218D20
:10170000491E89B22185628D521E62852268536905
:10171000DB435B070BD469B100781061606A401C41
:101720006062208D401E2085608D401E6085208D6A
:101730000028CBD12A463946204601F0EDF9002891
:10174000CAD154F83D0B016841F4007101602020BA
:1017500004F81E09E67766770020C6E7FFE7022057
:10176000C3E70000020010000000FFFF10B586B0C4
:101770000021009101910291039100681349884270
:1017800022D1134CA06940F00800A061A06969460D
:1017900000F0080004904FF4407000901220019077
:1017A000032003900B48FFF7A7FB0B48416841F06B
:1017B000E06141F002014160E06940F40010E06145
:1017C000E06900F40010049006B010BD0054004021
:1017D00000100240000C01400000014002488168F6
:1017E000027811448160704704000020074810B55A
:1017F000016841F010010160032000F0A7F80F20FC
:1018000000F006F800F050F8002010BD0020024063
:1018100030B505461F4887B0C16941F00201C1617A
:10182000C06906A900F00200009001A800F036F996
:101830000498B0B100F052F940001749174AB0FBC4
:10184000F1F11748491E0260416040F2E732002181
:10185000C0E903218160816100F076FB040003D0C0
:1018600015E000F03BF9E8E70D4800F09BFB0400B1
:101870000DD11D2000F03CF8102D07D20022294682
:101880001D2000F043F80748056000E0012407B080
:10189000204630BD0010024040420F0000040040CE
:1018A000C4020020080000200F4808B5816941F0FB
:1018B00001018161816901F001010091C16941F07B
:1018C0008051C161C069002200F0805000900F215A
:1018D000901E00F01BF80548416821F0E06141F0DE
:1018E0000071416008BD000000100240000001408E
:1018F000002809DB00F01F0201219140400980000F
:1019000000F1E020C0F8001170470000F0B40E4B69
:101910001B680C46C3F30223C3F10705042D00D94D
:101920000425191D072901D2002300E0DB1E012632
:1019300006FA05F1491E214099409E40761E164048
:101940003143F0BC02F0D0BC0CED00E0064900F0E1
:10195000070208684FF6FF03184040EA0220034AD6
:1019600010430860704700000CED00E00000FA052D
:101970002DE9F0470F46050061D0434E306800F076
:101980000700B84209D2306820F0070038433060C1
:10199000306800F00700B84251D128683B4C8107FD
:1019A00012D5400703D5606840F4E0606060287895
:1019B000000703D5606840F4605060606068A96803
:1019C00020F0F000084360602878C00728D06868DD
:1019D000012810D02168022810D0890700292EDAAA
:1019E000616821F0030101436160FFF77FFB8046DE
:1019F00041F288390DE021688903EFE78901EDE7BD
:101A0000FFF774FBA0EB0801494502D90320BDE8AC
:101A1000F0876068696800F00C00B0EB810FEFD1CF
:101A2000306800F00700B8420BD9306820F007009A
:101A300038433060306800F00700B84201D0012020
:101A4000E5E72878400705D56068E96820F4E0609C
:101A5000084360602878000706D56068296920F48B
:101A6000605040EAC100606000F058F86168084AC0
:101A7000C1F30311515CC84006490860064800687C
:101A8000FFF7C6FE0020C2E700200240001002401F
:101A9000D696000810000020080000200F220260E7
:101AA0000C4A536803F003034360536803F0F003E8
:101AB0008360536803F4E063C36052684FF4E063EB
:101AC00003EAD20202610448006800F007000860DF
:101AD0007047000000100240002002400448054901
:101AE00000684968044AC1F30221515CC84070474C
:101AF0001000002000100240E69600080448054946
:101B000000684968044AC1F3C221515CC84070476B
:101B10001000002000100240E69600080E4A5168AE
:101B20000E4801F00C03042B11D0082B0FD10C48E8
:101B3000C1F38343C903C05C0AD55168084AC1F3A5
:101B40004041921E515C054A5043B0FBF1F0704792
:101B500004494843704700000010024000127A0018
:101B6000C696000800093D002DE9F84F040070D02A
:101B70002078C04DC00749D06868C0F381000128B3
:101B800007D06868C0F38100022809D16868C003E3
:101B900006D52868800339D560680028E7D035E08D
:101BA0006068B0F5803F0BD010B1B0F5A02F11D018
:101BB000286820F480302860286820F4802002E023
:101BC000286840F480302860606890B1FFF78EFA92
:101BD00006460AE0286840F480202860F0E700BF4D
:101BE000FFF784FA801B642873D828688003F7D530
:101BF0000CE0FFF77BFA064605E000BFFFF776FA38
:101C0000801B6428F0D828688003F7D420789A4E87
:101C100080074FF001094FF0000839D5686810F0CF
:101C20000C0F07D06868C0F38100022809D16868EA
:101C3000C00306D42868800714D52069012808D17C
:101C400010E02069B0B1C6F80090FFF74FFA0746E0
:101C500005E00AE1FFF74AFAC01B0228C4D8286849
:101C60008007F7D52868616920F0F80040EAC100D4
:101C700028600DE0C6F80080FFF738FA074604E058
:101C8000FFF734FAC01B022823D828688007F7D44E
:101C9000207800072CD57948A169D9B1C0F8009007
:101CA000FFF724FA074604E0FFF720FAC01B0228DA
:101CB0000FD8686A8007F7D571484FF4FA51006869
:101CC000B0FBF1F0009000BF0098411E0091FAD2E5
:101CD0000EE080E0C0F80080FFF708FA074604E055
:101CE000FFF704FAC01B022875D8686A8007F7D48A
:101CF0002078400760D5E8690027C00008D4E8696B
:101D000040F08050E861E869012700F080500090C1
:101D10005C480168C90513D40168834641F48071A9
:101D20000160FFF7E3F9824606E000BFFFF7DEF946
:101D3000A0EB0A0064284ED8DBF80000C005F5D5FA
:101D4000E06801280AD008B1052813D0286A20F0DD
:101D500001002862286A20F0040002E0286A40F0AE
:101D600001002862E06841F2883B98B1FFF7BEF9B4
:101D700082460BE0286A40F004002862EEE700BFCC
:101D8000FFF7B4F9A0EB0A0159455AD8286A800731
:101D9000F6D50CE0FFF7AAF9824605E0FFF7A6F9B1
:101DA000A0EB0A0159454CD8286A8007F6D41FB128
:101DB000E86920F08050E861E06988B36968C1F3A0
:101DC0008101022944D00228C6F8608004D0FFF7C0
:101DD0008DF9044638E034E0FFF788F9074604E05F
:101DE000FFF784F9C01B02282BD828688001F7D49C
:101DF000206AB0F5803F05D16868A16820F4003002
:101E000008436860D4E908010843696821F4741143
:101E100008436860C6F86090FFF768F9044606E07A
:101E200025E000BFFFF762F9001B022809D82868E7
:101E30008001F7D51BE000BFFFF758F9001B02280F
:101E400002D90320BDE8F88F28688001F4D40EE0A1
:101E50000128F7D06868226A00F48031914204D1E9
:101E6000616A00F47010884201D00120EAE7002086
:101E7000E8E70000001002400000424280044242B5
:101E800010000020007000407047704710B590F8B7
:101E90003C20012A22D0012280F83C20CA688C68AC
:101EA00022F4407222434C6822F4806222430C6880
:101EB00022F4006222430C6922F4805222434C69CE
:101EC00022F400522243C969002322F480420A43CB
:101ED00001684A6480F83C30002010BD022010BD2B
:101EE00070B590F83C20012A26D0012480F83C40AF
:101EF000022280F83D2003685A689D6822F070062F
:101F00000A6832435A600D4B02689A4208D0B2F117
:101F1000804F05D00A4B9A4202D00A4B9A4204D114
:101F2000496825F080031943916080F83D40002105
:101F300080F83C10084670BD022070BD002C0140A6
:101F4000000400400008004010B5040003D094F8DD
:101F50003D0010B107E0012010BD002084F83C00D6
:101F6000204600F01EF8022084F83D00211D206864
:101F700001F0ACFE012084F8460084F83E0084F8AD
:101F80003F0084F8400084F8410084F8420084F85F
:101F9000430084F8440084F8450084F83D000020A4
:101FA00010BD704790F83D10012901D00120704705
:101FB000022180F83D100168CA6842F00102CA603F
:101FC00000680B49884208D0B0F1804F05D009491C
:101FD000884202D00849884204D1816801F0070193
:101FE000062903D0016841F001010160002070471B
:101FF000002C014000040040000800402DE9F041A1
:102000000D46040003D094F83D0018B108E001200B
:10201000BDE8F081002084F83C00204600F040F844
:10202000022084F83D002068816844F20702914351
:102030008160211D206801F049FE22689068916945
:10204000166A2B68AF69034340F20330814341EACB
:102050000721A868EF6908434FF6FC418843E96807
:1020600040EA0720014328692F6A000140EA07304F
:10207000084369686D6926F0220646EA051529437A
:1020800093602268906154F8460B0162012004F8C5
:102090001F09E0752076E0762077A0750020B7E76D
:1020A00000B585B000210091019102910391016872
:1020B0001A48B1F1804F1BD0194A914216D1C1691B
:1020C00041F00401C161C16901F004010491816919
:1020D00041F0080181618069694600F008000490C0
:1020E000C02000900F4800BFFEF706FF05B000BDFE
:1020F000C16941F00101C161C16901F001010491AF
:10210000816941F0040181618069694600F0040041
:102110000490032000900448E6E70000001002400D
:1021200000080040000C01400008014070B590F824
:102130003E60044690F83F5090F8423090F84320BB
:10214000022021B104290ED0012E1BD114E0012E52
:1021500018D1012B16D184F83E0084F842000122E8
:102160000021206820E0012D0CD1012A0AD184F839
:102170003F0084F8430014E0012D03D1012B01D16D
:10218000012A01D0012070BD84F83E0084F83F0090
:1021900084F8420084F8430001220021206801F005
:1021A000CBFD01220421206801F0C6FD20680168F2
:1021B00041F001010160002070BD704770B5044618
:1021C000006801694FF00005C943890715D4C1684B
:1021D000C943890711D4E91E0161012020772068D5
:1021E00080698007204602D0FFF7E7FF04E000F097
:1021F000BFF8204600F064F9257720680169C943DB
:10220000490717D4C168C943490713D46FF00401C3
:102210000161022020772068806910F4407F204609
:1022200002D0FFF7CAFF04E000F0A2F8204600F059
:1022300047F9257720680169C943090716D4C168A1
:10224000C943090712D46FF0080101610420207707
:102250002068C0698007204602D0FFF7AEFF04E087
:1022600000F086F8204600F02BF9257720680169F8
:10227000C943C90617D4C168C943C90613D46FF04E
:1022800010010161082020772068C06910F4407FA8
:10229000204602D0FFF791FF04E000F069F82046E5
:1022A00000F00EF9257720680169C943C90708D1F4
:1022B000C168C943C90704D1891E0161204600F0E5
:1022C0004FF920680169C943090609D4C168C943A7
:1022D000090605D46FF0800101612046FFF7D4FDA7
:1022E00020680169C943490609D4C168C943490640
:1022F00005D46FF040010161204600F03BF92068F1
:102300000169C94389060BD4C168C943890607D44A
:102310006FF0200101612046BDE87040FFF7B5BDB8
:1023200070BD000000B585B00021009101910291BF
:10233000039100680B49884212D10B48816941F032
:10234000040181618069694600F0040004904FF443
:10235000106000900220019003900448FEF7CCFD2D
:1023600005B000BD002C01400010024000080140F3
:10237000704770B5044690F83C0000260D460128D1
:102380000FD0012084F83C006AB1042A1DD0082A2D
:102390002FD00C2A3FD00126002084F83C00304684
:1023A00070BD022070BD206801F0D4FC20688169F6
:1023B00041F0080181612068816921F00401816197
:1023C000206881692A69114311E0206801F0EAFC64
:1023D0002068816941F4006181612068816921F48C
:1023E00080618161206881692A6941EA02218161F5
:1023F000D2E7206801F002FD2068C16941F00801C0
:10240000C1612068C16921F00401C1612068C1690E
:102410002A69114311E0206801F01CFD2068C169A0
:1024200041F40061C1612068C16921F48061C1612A
:102430002068C1692A6941EA0221C161ACE710B58F
:10244000040003D094F83D0010B107E0012010BD56
:10245000002084F83C00204600F01EF8022084F89A
:102460003D00211D206801F031FC012084F8460068
:1024700084F83E0084F83F0084F8400084F841006E
:1024800084F8420084F8430084F8440084F845004E
:1024900084F83D00002010BD08B500680649884258
:1024A00008D10648816941F400618161806900F4C6
:1024B0000060009008BD0000002C014000100240A8
:1024C0007047000010B50446022249B104290ED01D
:1024D000082913D094F84100012816D0012010BD1E
:1024E00094F83E000128F9D184F83E200FE094F8DA
:1024F0003F000128F2D184F83F2008E094F8400022
:102500000128EBD184F8402001E084F84120012229
:10251000206801F011FC0F492068884203D1426C09
:1025200042F4004242642068884208D0B0F1804FF3
:1025300005D00949884202D00849884204D18168FF
:1025400001F00701062903D0016841F00101016093
:10255000002010BD002C0140000400400008004095
:1025600000680349884201D1FFF738B9704700007D
:10257000000400407047704770470000F8B50168DC
:1025800004460868CA684B6910F00F0F4FF0000549
:1025900059D003F0010602F49077374365D0C107A4
:1025A00005D0D10503D5616C41F00101616441079B
:1025B00005D5D90703D0616C41F002016164810740
:1025C00005D5D90703D0616C41F0040161640107AE
:1025D00007D502F02001314303D0616C41F00801BE
:1025E0006164616C00293AD0800604D5900602D55A
:1025F000204601F04CFD20684069616CC0F38010FA
:10260000090700D460B3204601F01AFD2068406934
:10261000400621D52068143050E8001F21F0400109
:1026200040E80012002AF5D1E06BA8B16D49416382
:10263000E06BFEF7C7FB002811D0E06B416B01B0E7
:10264000BDE8F040084783060FD593060DD5204618
:10265000BDE8F84001F01BBD2046FFF78DFFF8BD37
:102660002046FFF789FF6564F8BD266B2023012E05
:102670007CD1C6067AD5D60678D508684868009019
:1026800048694FF00206400640D5E16B0868406893
:102690000004000CE8D0A28D8242E5D9E08588696B
:1026A00020282DD020680C3050E8001F21F48071C4
:1026B00040E80012002AF5D12068143050E8001FCD
:1026C00021F0010140E80012002AF5D12068143001
:1026D00050E8001F21F0400140E80012002AF5D127
:1026E00084F84230256320680C3050E8001F21F048
:1026F000100140E80012002AF5D1E06BFEF73EFB26
:102700006663A08DE18D401A81B22AE0A08DE18D33
:10271000401A81B2E08D0028A6D00029A4D02268FA
:102720000C3252E8000F20F4907042E80007002FAE
:10273000F5D12068143050E8002F22F0010240E863
:102740000027002FF5D184F84230256320680C3033
:1027500050E8002F22F0100240E80023002BF5D1B2
:1027600066632046FFF707FFF8BDFFE705062BD598
:10277000150629D594F841002128F5D1A068B0F5B7
:10278000805F01D12069B0B1206A411C21622168BB
:1027900000784860E08C401E0004000CE084E3D127
:1027A0002068C16821F08001C1602068C16841F0E3
:1027B0004001C160D8E7206A0088C0F30800486083
:1027C000206A801C2062E5E74006CDD55006CBD5B7
:1027D000CA68204622F04002CA6084F8413000F006
:1027E000AFF8C1E73140000870B5040004D094F898
:1027F0004100002510B106E0012070BD84F8405072
:10280000204600F023F8242084F841002068C168A5
:1028100021F40051C160204601F09AFC2068016952
:1028200021F4904101612068416921F02A01416150
:102830002068C16841F40051C1606564202084F8BB
:10284000410084F842006563002070BD30B585B05A
:10285000002400940194029403940068184988426B
:102860002CD11848C16941F48021C161C16901F4CA
:1028700080210491816941F0080181618069124DD4
:1028800000F0080004904FF4806000900220019056
:102890000320039069462846FEF72EFBE814CDE995
:1028A0000004694628460294FEF726FB0022052113
:1028B0002720FFF72BF82720FFF71AF805B030BDC7
:1028C0000048004000100240000C014090F84230E7
:1028D000202B01D00220704721B11AB100230363DD
:1028E00001F092BC0120704708B500680F4988428A
:1028F0001BD1002000900E480D49007848700D480B
:10290000006810B1694604F065FE012208490A48D2
:10291000FFF7DCFF0098002807D008494FF08050EF
:102920000860BFF34F8FBFF36F8F08BD00480040B2
:10293000EC000020E80000207C02002004ED00E014
:102940007047FEE701684A69D24352050FD46FF41D
:1029500080624A61002140F8301F20224273817357
:10296000026942F0040202610173012070470020F5
:10297000704700002DE9F84F0446006889460B9D1A
:1029800001689846174641F480610160206801683B
:1029900041F48071016000954FF0011B00225946FF
:1029A00020460A9B00F0E4F84FF4007A40B120681A
:1029B0000068C00501D5C4F840A00320BDE8F88F29
:1029C000216809F0FE0008612B46284920460A9A32
:1029D00000F016F9F0BB20684169806900902A4632
:1029E00020460A9900F0A2F940B1206C04283AD19F
:1029F0002068016841F40071016034E0FEB2B8F172
:102A0000010F09D02168380A08612A4620460A9930
:102A100000F08CF90028E8D1206806612A4620469B
:102A20000A9900F083F90028DFD12068016841F499
:102A30008071016000950022594620460A9B00F0F3
:102A400097F80028B3D1216809F0FF0040F0010099
:102A5000086100E007E02B46044920460A9A00F08E
:102A6000CFF80028AAD00120A8E70000020001004A
:102A70002DE9F843044600680D46DDE90897016832
:102A80009846164641F4807101604B4600224FF093
:102A900001112046009700F06BF848B120680068EB
:102AA000C00502D54FF4007020640320BDE8F88310
:102AB000216805F0FE0008613B464A46154920465C
:102AC00000F09EF888B920684169806900903A4614
:102AD0004946204600F02AF948B1206C042804D168
:102AE0002068016841F4007101600120DEE7F5B261
:102AF000B8F1010F09D02168300A08613A46494609
:102B0000204600F013F90028E7D120680561002075
:102B1000CCE700000200010070B516460D460446E1
:102B20001EE02046FFF70EFF08B1012070BD681CB3
:102B300016D0FEF7DBFA801BA84200D885B92068C2
:102B40004069C04340070BD5002044F8300F2021D6
:102B50006173A073216941F0200121612073E4E7D2
:102B600020684069C0434007DBD4002070BD0000EE
:102B70002DE9F047984617460D460446C1F307462F
:102B8000DDF820902AE000BFB8F1FF3F26D0FEF725
:102B9000ADFAA0EB0901414502D8B8F1000F1DD1F3
:102BA0002068012E16D0806925EA00000004000C80
:102BB00012D00020B84211D1002044F8300F20215B
:102BC0006173A073216941F020012161207301200C
:102BD000BDE8F0874069E7E70120EBE72068012EB8
:102BE0000AD0806925EA00000004000C06D000200D
:102BF000B842C9D00020EBE74069F3E70120F7E7CE
:102C00002DE9F047984616460D4604464FF0000958
:102C10004FF0200AC1F3074723E020684069C04312
:102C2000400515D42068016841F4007101602168F5
:102C30006FF480604861C4F8309084F83DA084F857
:102C40003E90216C41F00401216484F83C9021E025
:102C5000701C06D0FEF74AFAA0EB0800B04203D879
:102C600016B1012F1FD021E02068012F15D08069F7
:102C700025EA00000004000C18D000BF44F8309F83
:102C800084F80DA084F80E90216941F020012161A3
:102C900084F80C900120BDE8F087406925EA000027
:102CA0000004000CEAD12068406901E020688069D6
:102CB00025EA00000004000CAFD1ECE72DE9F0415B
:102CC000002590460E460446202728E04069C04370
:102CD000C0060CD454F8301B6FF01000486144F863
:102CE00010596777A577206A2062257714E0FEF7F0
:102CF000FDF9A0EB0800B04200D886B92068406911
:102D0000C04340060BD544F8305F6773A573206954
:102D100040F02000206125730120BDE8F08120688B
:102D20004169C9434906D1D40020F6E770B516467B
:102D30000D4604461EE02046FFF704FE08B10120C0
:102D400070BD681C16D0FEF7D1F9801BA84200D8D0
:102D500085B920684069C04300060BD5002044F8BF
:102D6000300F20216173A073216941F0200121619E
:102D70002073E4E720684069C0430006DBD40020EC
:102D800070BD000010B50E4C002208212046FEF751
:102D9000A8F900F017F8012210212046FEF7A1F94A
:102DA00000F010F8002210212046FEF79AF900F0FA
:102DB00009F820460122BDE810400821FEF791B92C
:102DC000000C01400020401CC0B20A28FBD3704711
:102DD0000C4800B5816985B041F0080181618069C6
:102DE000694600F00800049018200090032003902A
:102DF000112001900448FEF77FF800F09DF805B01F
:102E000000BD000000100240000C014010B50C4C49
:102E1000012208212046FEF764F9FFF7D3FF0122C3
:102E200010212046FEF75DF9FFF7CCFF00221021AC
:102E30002046FEF756F9BDE81040FFF7C3BF00007B
:102E4000000C01402DE9F0410024134E07462546B1
:102E50006006040E012210213046FEF742F9FFF70A
:102E6000B1FF08213046FEF737F908B1641CE4B21F
:102E7000002210213046FEF734F9FFF7A3FF6D1C46
:102E8000EDB2082DE4D327B1FFF77CFF2046BDE863
:102E9000F081FFF7BBFFF9E7000C014070B5154E5C
:102EA00005460024280601D5012200E00022082161
:102EB0003046FEF716F9FFF785FF01221021304654
:102EC000FEF70FF9FFF77EFF002210213046FEF7D4
:102ED00008F9072C04D1012208213046FEF701F938
:102EE0006806050EFFF76EFF641CE4B2082CD9D308
:102EF00070BD0000000C014010B50E4C01220821ED
:102F00002046FEF7EEF8012210212046FEF7E9F8F0
:102F1000FFF758FF002208212046FEF7E2F8FFF7EE
:102F200051FF002210212046FEF7DBF8BDE81040DB
:102F3000FFF748BF000C014010B50A4C00220821E1
:102F40002046FEF7CEF8012210212046FEF7C9F8F0
:102F5000FFF738FF20460122BDE810400821FEF7A8
:102F6000C0B80000000C014070B5104D01220821CE
:102F70002846FEF7B6F8FFF725FF01221021284664
:102F8000FEF7AFF8FFF71EFF08212846FEF7A4F86A
:102F900008B1012400E00024002210212846FEF799
:102FA000A0F8FFF70FFF204670BD0000000C0140A5
:102FB00010B54FF4E15304685A429C4201DD0360AE
:102FC00002E0944200DA02600868984201DD0B607A
:102FD00010BD9042FCDA0A6010BD00002DE9F041FE
:102FE0000D461B4E04004FF400514FF4805705D599
:102FF00001223046FEF775F8002204E00022304638
:10300000FEF76FF8012239463046FEF76AF8002CC9
:1030100000DA64420F4F386804644FF480414C007A
:10302000002D05DA01223046FEF75BF8002204E0AD
:1030300000223046FEF755F8012221463046FEF7C1
:1030400050F8002D00DA6D4238684563BDE8F08124
:10305000000C0140A401002008B500F065F802F062
:1030600057FD05F00FF8154C154F04F1080004F159
:10307000140504F1100B04F10E0A04F10C0904F11B
:103080001608AE1E0090211D0C48009A02F072FC3A
:103090005A465146484600F02EF8424629463046E8
:1030A00000F010F8386820B102230022034904F030
:1030B000DDFC0A2004F014FAE5E700000C370020DC
:1030C000B80000207CB514460D4606466B46062225
:1030D0003B21682000F080F800280BD1BDF80010DB
:1030E00049BA3180BDF8021049BA2980BDF80410F0
:1030F00049BA21807CBD7CB514460D4606466B4618
:1031000006224321682000F067F800280BD1BDF8A3
:10311000001049BA3180BDF8021049BA2980BDF8C3
:10312000041049BA21807CBD10B5FFF751FE802103
:103130006B2000F0C0F86420FDF790FE00216B20AA
:1031400000F0B9F8032000F082F8002000F07AF8CF
:10315000642000F099F80021382000F0ACF800213C
:103160006A2000F0A8F80021232000F0A4F88021B4
:10317000372000F0A0F8752000F011F8682801D081
:10318000012010BD01216B2000F095F800216C207A
:1031900000F091F8642000F077F8002010BD10B521
:1031A0000446FFF7A9FED020FFF778FEFFF7DCFE0C
:1031B0002046FFF773FEFFF7D7FEFFF79DFED120F5
:1031C000FFF76CFEFFF7D0FE0020FFF73BFE044642
:1031D000FFF7B2FE204610BD2DE9F0411D46144612
:1031E0000F460646FFF788FE7006000EFFF756FEF4
:1031F000FFF7BAFE20B1FFF79FFE0120BDE8F08186
:103200003846FFF74BFEFFF7AFFEFFF775FE0120D4
:1032100000EB4600C0B2FFF741FEFFF7A5FE09E054
:10322000012C0DD05FF00100FFF70CFE641E05F8C5
:10323000010BE4B2002CF3D1FFF77EFE0020DDE7A6
:103240000020F1E7C006010E1C2000F034B8C006D3
:10325000010E1B2000F02FB8BC2801D3012110E083
:10326000622801D302210CE02A2801D3032108E0BF
:10327000142801D3042104E00A2801D3052100E029
:1032800006211A2000F017B810B504464FF47A70E2
:10329000844201D9044602E0042C00D20424B0FB8D
:1032A000F4F0401EC1B2192000F005F86008BDE836
:1032B0001040FFF7D1BF70B50C460546FFF71CFE66
:1032C000D020FFF7EBFDFFF74FFE50B92846FFF780
:1032D000E5FDFFF749FE2046FFF7E0FDFFF744FE5E
:1032E00018B1FFF729FE012070BDFFF725FE002071
:1032F00070BD2DE9F0411E4615460F460446FFF706
:10330000FBFD6006000EFFF7C9FDFFF72DFE60B95B
:103310003846FFF7C3FDFFF727FE00240CE0305DC1
:10332000FFF7BCFDFFF720FE20B1FFF705FE0120EF
:10333000BDE8F081641CE4B2AC42F0D3FFF7FCFDC1
:103340000020F5E710B5044A0021044803F04AFACA
:103350000349086010BD0000A0960008FD3B00086E
:10336000000000202DE9F04186B00024364800948A
:10337000019402940394816941F010018161816993
:1033800001F010010491816941F02001816181699E
:1033900001F020010491816941F00401816181699A
:1033A00001F004010491816941F0080181618069A3
:1033B000264F00F008000490002208213846FDF74F
:1033C00090FEDFF88C804FF218060022314640460E
:1033D000FDF787FE042000901E48CDE901046946F0
:1033E0003846FDF789FD08200125CDE900050320B9
:1033F000CDE9024069463846FDF77EFD0220CDE961
:103400000240CDE9006569464046FDF775FD202084
:1034100000901148CDE9010469464046FDF76CFD76
:10342000002205210820FEF771FA0820FEF760FA55
:10343000002205211720FEF769FA1720FEF758FA37
:1034400006B0BDE8F0810000001002400008014015
:10345000000C014000003110000021100D4810B593
:103460000B4901600C49416000214FF480428160AA
:10347000C0E9031241618161C1610162FDF73CFE57
:10348000002803D0BDE81040FDF776BC10BD000059
:103490000054004050010020A086010010B592B0F9
:1034A00000240F941C2168461094FDF7A4F82021F5
:1034B00007A8FDF7A0F825482349C0E9001441F604
:1034C0001F41C0E90241046144618461FEF7B7FF16
:1034D00008B1FDF751FC0F940FA91C481094FEF79A
:1034E000FFFC08B1FDF748FC602000904FF4E1506C
:1034F000CDE901040394049405940022694613481D
:103500000694FEF736FF08B1FDF736FC0C2269463B
:103510000E480194FEF72DFF08B1FDF72DFC07942E
:10352000089409944FF400500A94CDE90B4007A980
:1035300006480E94FEF7AAFC08B1FDF71DFC0348EF
:10354000FEF7F0FE12B010BD002C0140A4010020D7
:1035500010B58CB024216846FDF74DF800241548BD
:1035600009944FF080410A94C0E900144FF6FF71AE
:10357000C0E90241046184610320CDE90004012017
:10358000CDE902040494CDE9054007946946094851
:103590000894FEF733FD08B1FDF7EEFB099409A985
:1035A00004480A94FEF79CFC002801D0FDF7E4FBD8
:1035B0000CB010BDEC01002010B58CB02421684681
:1035C000FDF719F800241648099414490A94C0E933
:1035D00000144FF6FF71C0E90241046184610320C9
:1035E000CDE900040120CDE902040494CDE90540B1
:1035F000079469460A480894FEF700FD08B1FDF7F4
:10360000BBFB099409A906480A94FEF769FC002847
:1036100001D0FDF7B1FB0CB010BD00000008004068
:10362000340200200C4810B50A4901604FF4E13122
:103630004160002181600C22C160C0E904128161F7
:10364000C161FFF7D1F8002803D0BDE81040FDF7B5
:1036500093BB10BD004800407C020020FEE7FEE75F
:1036600070B5002404F1B000C0B200F027FA0020C9
:1036700000F024FA102000F021FA0025002000F0CC
:103680002FFA6D1CEDB2802DF8D3641CE4B2082C27
:10369000E8D370BD10B5C820FDF7E0FBBDE81040D1
:1036A00000F0F4BD10B50446B031C8B200F006FA1F
:1036B000102040EA141000F001FA04F00F00BDE8F9
:1036C000104000F0FBB900002DE9F041203A002441
:1036D0000D468046D6B27F2803D900208D1C804637
:1036E000EDB2102B29460FD0FFF7DCFF164906EB91
:1036F000460001EB4005285D00F0F2F9641CE4B2DD
:10370000062CF8D3BDE8F081FFF7CCFF0F4F00BFC8
:1037100004EB0610385C00F0E3F9641CE4B2082CFA
:10372000F6D36D1CE9B24046FFF7BCFF5FF0000422
:1037300004EB06103844007A00F0D2F9641CE4B2BD
:10374000082CF5D3DEE700003AA3000862A50008C4
:103750002DE9F05F0026DDF828901D4692468B4645
:10376000804634464FEA590723E0281B401EC1B269
:103770000A2002F0D9FFBAFBF0F00A21B0FBF1F207
:1037800001FB120026B9691E8C4201DA38B101260C
:103790003030C2B207FB0480C0B24B4604E007FBE6
:1037A0000480C0B24B4620225946FFF78DFF641CAF
:1037B000E4B2AC42D9D3BDE8F09F2DE9F041984680
:1037C00017460E46044600250DE043463146204686
:1037D000FFF77AFF0834E4B2782C02D90024B61C33
:1037E000F6B26D1CEDB27A5D002AEED1BDE8F08133
:1037F0008CB09D4C4FF0FF352946206804F0E0FA6C
:10380000012809D1FFF746FFFFF72AFF00231A46D8
:103810001946206804F02AF92946A246206804F0D7
:10382000CFFA012830D10021102390A20846FFF7DB
:10383000C4FF10238FA200212820FFF7BEFF102312
:103840008DA200215820FFF7B8FF10238BA2022180
:103850000020FFF7B2FF10238AA204210020FFF707
:10386000ACFF102389A204215020FFF7A6FF1023EC
:1038700087A206210020FFF7A0FF00231A46194661
:10388000DAF8000004F0F2F8DFF80CB28448052200
:103890008249006804F0F8F90128F7D17F48D0E99F
:1038A0000061D0E90245077E26F000408946804647
:1038B00005F0AEFC0490404605F054FB0022794B25
:1038C00005F076F805F044F84FF00A0890FBF8F29E
:1038D00008FB12000A90484605F09AFC08907249CD
:1038E000484605F0FDFC05F093FC90FBF8F208FB60
:1038F000120006902FB18BF8007004F0C3FBCBF8D8
:1039000004009BF800005F4648B104F0BBFB7968F7
:10391000401AB0F5FA7F02D297F8009003E0002039
:103920004FF02009387032215746DAF8000004F0D1
:1039300047FA01287ED1002D4FF0100301DA2D2225
:1039400000E02B2200213820FFF7BEFE4FF01008C8
:103950002A00CDF8008000D56A42022300214020D1
:10396000FFF7F6FE002C4FF0100301DA2D2200E0E5
:103970002B2200216820FFF7A7FE2200CDF800804F
:1039800000D56242022300217020FFF7E1FE16F10C
:10399000FF4F4FF0100301D32D2200E02B22022114
:1039A0002820FFF791FE0223CDF800801946302031
:1039B000049AFFF7CDFE10232E2202214020FFF7AC
:1039C00083FECDF800800123022148200A9AFFF7E8
:1039D000BFFE0323CDF8008004212820089AFFF7BA
:1039E000B7FE10232E2204214020FFF76DFE012395
:1039F000CDF8008004214820069AFFF7A9FE2B4845
:103A00002BA20521037802A8FCF772FC102302AA5E
:103A100006212820FFF7D1FE2748CDF80080022399
:103A2000027806215A20FFF793FE102306214A460A
:103A30006C2000E014E0FFF747FE4846B9F1200F84
:103A40004FF0100301D0024600E0202206216C2036
:103A5000FFF73AFE00231A461946386804F006F8C4
:103A6000642003F03DFD11E7B4000020454E636F74
:103A7000000000004C3A0000523A0000526F6C6C9B
:103A80003A000000646973743A000000636D00003E
:103A90004550524D3A0000008C000020F0360020C6
:103AA000C40000200000244000002041EE0000205F
:103AB0003078253032580000EF00002001B584B086
:103AC00001214FF4807204A88DE807000B46002204
:103AD00078210248FDF7B2FD05B000BD500100207D
:103AE00001B584B001214FF4807204A88DE807006D
:103AF0000B46402278210248FDF7A0FD05B000BD2D
:103B0000500100200168486A002200B24A627047F2
:103B10000648016841F0807101600548002141605C
:103B2000016841F00101016070470000FCED00E018
:103B3000001000E01CB504F0A5FA01901C481E49D5
:103B4000006800901B480068B0FBF1F005F0B4FB82
:103B50001A4C1B4E05460027277000F03BF86421E5
:103B6000012003F059FB012801D0164804E0207819
:103B700001280ED04FF040400090306820B1022361
:103B80000022694603F072FF642101A803F0CEFC15
:103B9000E2E70D4800680D490968401A05F08CFB02
:103BA000294605F073FA0A4905F09AFBE4E700009C
:103BB000F09600081000002040420F004401002051
:103BC000C8000020000020C14C0100204801002056
:103BD00096438B3C10B5084C012208212046FDF786
:103BE00080FA0C20FDF780F820460022BDE8104046
:103BF0000821FDF776BA000000080140012002F01C
:103C00009BFDFBE710B502680868114605F034FC1F
:103C100005F0FEFA002800DA40423C2806DD0021CB
:103C20000846FFF7DBF902490120087010BD0000CB
:103C30002501002010B5502080F31188BFF34F8F6D
:103C4000BFF36F8F04F024FA18B104494FF080508D
:103C50000860002080F3118810BD000004ED00E032
:103C600030B58FB028216846FCF7C5FC14210AA89E
:103C7000FCF7C1FC01210804CDE9001000240294E6
:103C800002250491CDE907504FF4E01009906846F1
:103C9000FDF76AFF08B172B6FEE70F20CDE90A050D
:103CA0004FF48060CDE90C4002210AA80E94FDF784
:103CB0005FFE002801D072B6FEE70FB030BD70473E
:103CC0000148FEF77BBA0000C4020020F0B502688C
:103CD000164B174C174D4FF08047984205D0B8420D
:103CE00003D0A04201D0A84203D122F070064A6856
:103CF0003243984205D0B84203D0A04201D0A84236
:103D000003D122F44074CA6822434C6922F0800235
:103D1000224302608A68C2620A688262984201D1C4
:103D20000969016301214161F0BD0000002C0140DF
:103D3000000400400008004010B501F01F030121FD
:103D4000046A99408C430462016A9A4011430162FB
:103D500010BD000030B5036A026A22F0010202625F
:103D60004268846924F073050C682C4323F0020533
:103D70008B682B430A4DA8420BD123F00805CB6872
:103D800022F440722B434D6923F0040315438A69E2
:103D90002A434260846149684163036230BD000088
:103DA000002C014030B5026A036A23F0100303625D
:103DB000436884690D6824F4E64444EA05248D6868
:103DC00022F0200242EA05120B4DA8420ED1CD6826
:103DD00022F0800242EA05124D6923F4406343EA6F
:103DE00085038D6922F0400243EA850343608461C4
:103DF00049688163026230BD002C014030B5036A1E
:103E0000026A22F4807202624268C46923F4007379
:103E100024F073050C682C438D6843EA05230C4D90
:103E2000A8420ED1CD6823F4006343EA05234D690F
:103E300022F4405242EA05128D6923F4806342EA7B
:103E400005124260C4614968C163036230BD00006D
:103E5000002C014030B5046A026A22F480520262EA
:103E60004268C3690D6823F4E64343EA05238D687D
:103E700024F4005444EA0534064DA84204D14D69A7
:103E800022F4804242EA85124260C36149680164BB
:103E9000046230BD002C01407CB5012003F040FDE0
:103EA000504C0028206075D000221C21012003F016
:103EB00042FD606000220821012003F03CFDA0606B
:103EC00000220C21012003F036FDE06000221C21BD
:103ED000012003F030FD206100220421012003F0C5
:103EE0002AFD6061606800285CD0A068002861D06D
:103EF000E068002866D0206900286BD0042004F117
:103F000018018501CDE9000100232A4636A1384871
:103F100004F04CF804F11C000324CDE900406E00CD
:103F20000023324633A1344804F040F82D480023E2
:103F30002030CDE90040802230A1314804F036F82D
:103F4000284800232430CDE9004032462DA12F48D7
:103F500004F02CF8234800232830CDE900408022CB
:103F60002BA12C4804F022F81E4800232C30CDE968
:103F700000402A4628A12A4804F018F819480023CE
:103F80003030CDE90040802226A1284804F00EF808
:103F90007CBDFFE7502080F31188BFF34F8FBFF344
:103FA0006F8FFEE7502080F31188BFF34F8FBFF370
:103FB0006F8FFEE7502080F31188BFF34F8FBFF360
:103FC0006F8FFEE7502080F31188BFF34F8FBFF350
:103FD0006F8FFEE7502080F31188BFF34F8FBFF340
:103FE0006F8FFEE7B40000204F4C454400000000F6
:103FF000F13700084D50550059300008454E430038
:10400000210D00084354524C000000003D0B0008F5
:1040100042540000450A00085352303400000000AA
:10402000353B0008454550524F4D000091090008AE
:1040300010B5406A0021C185C184FEF79DFA10BD0C
:1040400001680C3151E8002F22F4907241E80023FE
:10405000002BF5D10168143151E8002F22F0010244
:1040600041E80023002BF5D1016B012909D101683A
:104070000C3151E8002F22F0100241E80023002B00
:10408000F5D1202180F8421000210163704708B566
:1040900090F84210222901D0022008BD82684FF416
:1040A00080539A4201D1016921B1816A9A421BD0A1
:1040B0004AB10AE00268816A5268C2F308020A80C3
:1040C000816A891C08E0026972B10268526802F0D4
:1040D0007F020A70816A491C8162C18D491E0904F0
:1040E000090CC18503D01BE002685268F1E7016842
:1040F000CA6822F02002CA600168CA6822F480728D
:10410000CA6001684A6922F001024A61202180F8F0
:10411000421000214163026B012A03D0FEF7E4FB49
:10412000002008BD016301680C3151E8002F22F026
:10413000100241E80023002BF5D101680A68D2067D
:1041400002D50A6849680091818DFEF714FAE7E705
:1041500070B5044600680169E26821F440511143DA
:1041600001612169A0680843616908432168CA6840
:1041700041F20C639A430243CA6020684169A26914
:1041800021F44071114341611E492068884202D1E7
:10419000FDF7B4FC01E0FDF7A1FC00EBC00101EB71
:1041A0000012606864218000B2FBF0F3B3FBF1F30E
:1041B0006FF018067343B2FBF0F5B2FBF0F605EBB7
:1041C0008305322303EB0515B5FBF1F5B6FBF1F6DC
:1041D00005F0F00505EB0615B2FBF0F6B2FBF0F0CA
:1041E000B0FBF1F06FF01802504306EB800003EBD8
:1041F0000010B0FBF1F0216800F00F002844886047
:1042000070BD00000038014081628285C2850021B6
:104210004164222180F84210016921B10168CA6815
:1042200042F48072CA6001684A6942F001024A6140
:104230000068C16841F02001C160002070470000A3
:104240000148FEF79BB900007C020020FEE72DE943
:10425000F041044616460F46406B05F015F8A1697B
:1042600004F0ACFE05463146606805F039F80646B4
:104270002946384605F000F9216805F031F8314645
:1042800004F09CFEBDE8F04104F0C2BFFEB500247E
:10429000094F4FF4807501263819CDE90006012336
:1042A0000022782102950548FDF7C8F9641CE4B2A4
:1042B0001B2CF1D3FEBD0000260100205001002080
:1042C000490050EAC12018BF04204A0D18BF40F031
:1042D000010040F2FF72B2EB515F08BF40F00200F4
:1042E000012808BF052070470907090E002804DBD4
:1042F00000F1E02080F80014704700F00F0000F19A
:10430000E02080F8141D70472DE9F0414F1E00EBAE
:10431000C7010446D1E9000115461E4637F00602E2
:104320000DD02A46334604F043FB7F1E04EBC7033F
:10433000D3E9002304F0BCF837F00602F1D1022FD4
:1043400025D0042F13D0062F18BFBDE8F0812A46D0
:10435000334604F02DFBD4E90A2304F0A9F82A46D9
:10436000334604F025FBD4E9082304F0A1F82A46DB
:10437000334604F01DFBD4E9062304F099F82A46DD
:10438000334604F015FBD4E9042304F091F82A46DF
:10439000334604F00DFBD4E9022304F089F82A46E1
:1043A000334604F005FBD4E90023BDE8F04104F0F6
:1043B0007FB8012205F007B904F07AB8002213464D
:1043C0001046114604F030B9024A0020110705F0EA
:1043D000FAB8000001FDFFFF30380A2801D20120A1
:1043E00070470020704700002DE9FE4F07460E463B
:1043F0000025684600F0F8FF00246FF00F0AE84639
:104400004FF0010957F8240056F82410401A00D53F
:10441000404204F039FF514605F003F958F82410E2
:1044200011F0FF4F0BD004F031FE4FF07E5105F03C
:1044300023F80A4920F00040884205DC07E00849DB
:1044400008440849884202D309FA04F00543641C71
:10445000032CD7DB2846BDE8FE8F0000295C0F3E09
:10446000666666C19A99D9002DE9F04D8D4F21F00D
:10447000004A86B005460C46BA452ADBAAEB07007F
:1044800028430AD08848824501DC1AD1CDB106B054
:104490002846BDE8F04DFFF78CBF844A844B284680
:1044A00004F086FA07460E46824A834B2846214688
:1044B00004F07EFA06B03A463346BDE8F04D03F00C
:1044C000F7BF0120FCF73DF906B0BDE8F04DFFF75E
:1044D00075BF7A48824542DABAF1795F0BDA28462D
:1044E000FFF7EEFE042808BFFFF76EFF284606B070
:1044F0002146BDE8F08D2A460B46104604F058FAD6
:10450000834602466E480E460B4606217844FFF766
:10451000FBFE5A46334604F04BFA804669488A4609
:104520005A46334604217844FFF7EEFE5A46334696
:1045300004F03EFA00223B4603F0BAFF02460B4667
:104540004046514604F070F82A46234604F030FAFB
:1045500006B02A462346BDE8F04D03F0A9BF284621
:1045600024F0004100223D463B4604F01FFB4FF083
:10457000FF3205F028F80646024653480F460B4620
:1045800006217844FFF7C0FE32463B4604F010FA9D
:10459000CDE900014D4832463B4604217844FFF7FF
:1045A000B3FE32463B4604F003FA00222B4603F0EA
:1045B0007FFF834602913046394602F007FE80466F
:1045C00043480D46504517DCDDE900015A46029B81
:1045D00004F02AF842462B4604F0EAF942462B46FC
:1045E00003F066FF012204F0EEFF304A304B04F086
:1045F000CFFB304A304B4CE04FF0000A52460B469E
:10460000404603F055FFCDE9031052462B461046B5
:10461000194604F0CDF932463B4604F0C7FADDE90D
:10462000033204F001F806460F46DDE900015A4660
:10463000029B03F0F9FF8346009101223046394680
:1046400004F0C1FF194A1A4B04F0B0FA06460F46AF
:1046500001224046294604F0B6FF5A46009B04F06A
:10466000A7F932463B4604F093FB06460F4601226B
:104670005046294604F0A7FF0E4DDFF858802A4621
:10468000434604F093FA32463B4604F08FFA2A463A
:10469000434604F08BFA002CD8BF81F0004106B0ED
:1046A000BDE8F08D0000F03F0000F07F075C1433A0
:1046B00026A6913C182D4454FB21F93F0000E03F11
:1046C0003068000046680000BA670000D06700004C
:1046D0003333EF3FFB21E93F2DE9F84F04460D4608
:1046E00021F0004000917349814211DC72498842F7
:1046F00001DC06D12CB120462946BDE8F84FFFF772
:1047000058BE6E48002DCCBF6D496E49BDE8F88F8C
:104710006D49814211DD6D498142D8BF4FF0FF36AE
:104720006DDD20462946FFF7CBFD042808BFFFF7C3
:104730004BFE20462946BDE8F88F6549654F25F0B8
:104740000045814233DD6449814219DD002632464D
:104750004FF080432046294603F0AAFE80468A4651
:1047600001222046294604F02EFF00223B4604F099
:104770000FFB4246534603F057FF04460D463EE00A
:1047800001260022BA463B462046294603F090FE09
:1047900080460F46002253462046294604F0F8FA88
:1047A00042463B4603F040FF04460D4627E04B4996
:1047B00081421BDDDFF828A1022600225346204655
:1047C000294604F0F5F800223B4603F071FE8046CE
:1047D0000F46002253462046294604F0D9FA4246A5
:1047E0003B4603F021FF04460D4608E0032622461F
:1047F0002B4600203B4903F017FF04460D46224696
:104800002B461046194604F0D3F88B4682460246E2
:104810000B4604F0CDF807460246334888460B465F
:1048200006217844FFF770FD52465B4604F0C0F85D
:1048300082462E488B463A46434605217844FFF788
:1048400063FD3A46434604F0B3F802460B46002E99
:10485000504659460CDA03F02BFE22462B4604F054
:10486000A7F801B022462B46BDE8F04F04F09EB9F0
:1048700003F01EFE22462B4604F09AF81C4A7A44A6
:1048800002EBC603D3E9002304F082FA22462B464A
:1048900004F07EFA174A7A4402EBC603D3E90023F8
:1048A00004F084F9009A002AB8BF81F00041BDE805
:1048B000F88F0000000010440000F07F182D4454D1
:1048C000FB21F93FFB21F9BF0000DC3F0000203E47
:1048D0000000F33F0000F03F0000E63F008003408F
:1048E0000000F83F0000F0BFD265000090650000B6
:1048F0002E650000F66400002DE9F04D9446CCF1E1
:10490000000423F000464CEA0404594F46EAD474EC
:104910009A46884621F00042BC4206D8454240EA09
:10492000050442EAD474BC4204D9BDE8F04D6246A5
:10493000FFF742BDAAF14055A5F17F6555EA0C0489
:104940000BD0022404EAAA744A4DDFF82CE144EAB1
:10495000D87452EA000B04D00CE0BDE8F04DFFF72C
:10496000BBBE002C14BF012CBDE8F08D022C30D052
:10497000032C32D056EA0C0B0AD0BE4220D1BA42E8
:1049800009D126F0804622F080423346114617E0D6
:1049900000291ADB25E0DFF8E4B0FB44002C04BF5B
:1049A000DBE90001BDE8F08D012C02BFDBE900016D
:1049B00081F00041BDE8F08D022C0AD0032C0CD010
:1049C000BA4212D1B8F1000F0BDA2A482C49BDE8DF
:1049D000F08D28462B49BDE8F08D28467146BDE88C
:1049E000F08D24482849BDE8F08D921B12153C2A11
:1049F000C4BF204F244E10DCBAF1000FBEBF12F12D
:104A00003C0F00273E4608DB624603F00DFE21F016
:104A10000041FFF761FE07460E4694B1012C08BF26
:104A200086F000460DD0194A194B022C3846314603
:104A300015D004F0ADF92A46BDE8F04D114B04F055
:104A4000A7B9002213463846314603F045FF04BF9C
:104A50000220FBF776FE38463146BDE8F08D04F0C3
:104A600097F92A46BDE8F04D064B04F09FB80000C8
:104A70000000F07F182D4454FB2109C08A64000017
:104A8000FB21F9BFFB210940FB21F93F075C1433EF
:104A900026A6A13C08B560B120208DF80000282092
:104AA0008DF8010030208DF8020038208DF80300C9
:104AB00004E0A32204216846FBF795FD6A46042121
:104AC00040F69E2001F006FE01F0C4FA08BD000089
:104AD0003EB5044602208DF80000CA208DF8010082
:104AE000E3208DF8020009208DF803006A460421B6
:104AF000682001F0EFFDA3208DF80000610609D5C4
:104B0000C0218DF80110C8218DF80210C2218DF846
:104B1000031005E08DF801008DF802008DF8030008
:104B200014F4C07F09D0C4218DF80410CC218DF875
:104B30000510C6218DF8061005E08DF804008DF8EB
:104B400005008DF806008DF808008DF807008DF837
:104B500009006A460A2140F6A72001F0BBFDA00724
:104B60004FF0D80503D020208DF8000001E08DF82B
:104B700000506A46012140F6B62001F0ABFDA006C8
:104B800001D5012000E0002000F08EF814F4C07F71
:104B90001ED0E0050AD5B2208DF800008B208DF8DC
:104BA0000100B6208DF802009B2009E0B0208DF8AE
:104BB000000080208DF80100B4208DF802009020C4
:104BC0008DF803006A46042140F6A22001F082FD20
:104BD000E1074FF40B6022D0F8218DF800106A46EF
:104BE000012101F077FDFA21072000F049FB0720A1
:104BF00000F014FB012000F031FB642000F0D4FB36
:104C00004FF4FA7000F0E0FBC821254800F0CEFA1E
:104C1000282000F0E3FA0A2000F0F0FA05E08DF811
:104C200000506A46012101F055FDA00703D5D920A7
:104C30008DF8000001E08DF800506A46012140F235
:104C40003D7001F047FD600701D5012000E0002024
:104C500000F048F8E00601D5012000E00020FFF751
:104C600019FF104D44F00800688101F0F3F90020AD
:104C7000A873600601D50620A87314F4C07F02D083
:104C8000A87B801DA87314F0140F02D0A87B1030ED
:104C9000A873A00702D0A87B001DA87300203EBD0A
:104CA00009E3CA02B03700200EB54FF4976310B184
:104CB00006A107C901E008A207CA8DE807006A46F5
:104CC0000921184601F006FD0EBD0000B8AAB38DFB
:104CD000B4980D355D000000B8AAAAAAB088C3C573
:104CE000C700000008B560B1C0208DF80000C220E8
:104CF0008DF80100C4208DF80200C6208DF8030055
:104D000004E08B2204216846FBF76DFC6A4604210F
:104D100040F6982001F0DEFC01F09CF908BD00008F
:104D2000C8234FF48062024940F6F63001F074B8AF
:104D3000449700082DE9FF4F89B01746DDE9165268
:104D40000024544E884681462C80A246B07B69469A
:104D500001F00EF94FF0FF3B18B158460DB0BDE819
:104D6000F08F708910F0140F4CD0BDF800109DF832
:104D7000022049BA090441EA02239DF803100B43BB
:104D80003B60BDF804109DF8062049BA090441EAC9
:104D900002229DF807101B140A437A60BDF8081020
:104DA0009DF80A4049BA090441EA04219DF80B40E4
:104DB00012142143B960BDF80C409DF80EC064BACE
:104DC000240444EA0C2C9DF80F4009144CEA040C0E
:104DD000C7F80CC04FEA2C475B43494302FB023241
:104DE00007FB071111441024A1F17061B1F1007F9C
:104DF00004D901F02FF9A5F800A0AEE7298841F405
:104E0000807129804206694611D50A19A41D1388AC
:104E10005BBAA8F8003053885BBAA8F802309288D1
:104E200052BAA8F804202A8842F008022A8010F416
:104E3000C07F11D00A19A41D13885BBAA9F80030ED
:104E400053885BBAA9F80230928852BAA9F80420B4
:104E50002A8842F070022A80800716D00C44E0783D
:104E600000F0C00500F03F016078C00706D0C80818
:104E700001F007013268491C02B1904760780007D1
:104E800003D5716809B1A80988470C9800F046FD60
:104E9000002063E7B03700202DE9FF41044603A856
:104EA00000F0A2FEBDF80C00410CC3032F4800899E
:104EB00000F0030254F82250420700D56D42C0F3BF
:104EC000C102860654F8222000D55242C0F3811652
:104ED000C00554F8264000D56442A5FB0367E817D7
:104EE00000FB037005FB0100850045EA9670A2FBFC
:104EF0000367D51705FB037502FB0152950045EAD0
:104F00009672A4FB0367E51705FB037304FB0131ED
:104F10008B0043EA9671030E8DF80030030C8DF878
:104F20000130030A8DF802308DF80300100E8DF861
:104F30000400100C8DF80500100A8DF80600080E0C
:104F40008DF80800080C8DF80900080A8DF80A0091
:104F50008DF807208DF80B106A460C214FF4257050
:104F600001F0B8FB04B0BDE8F0810000B0370020CC
:104F700030B5044613A285B007CA8DE807004FF08C
:104F8000FF35C82C16D8C820B0FBF4F1491E080A1A
:104F90008DF80C008DF80D1003AA022140F21620A6
:104FA00001F098FB30B96A460C2140F6C12001F0AF
:104FB00091FB10B1284605B030BD05488481002022
:104FC000F9E70000FEF2ABC4AAF1DFDFBBAFDFDF21
:104FD000B0370020F8B53049098901F0030250F8D4
:104FE00022404A0700D56442C1F3C1028B0650F843
:104FF000222000D55242C1F3811350F82330C80556
:1050000000D55B42254984FB0140850045EA947048
:1050100082FB0142A40F44EA820483FB0121950F25
:1050200045EA8105010E8DF80010010C8DF8011084
:10503000010A8DF802108DF803006A4604214FF42E
:10504000747001F047FB4FF0FF3688B9200E8DF8E1
:105050000000200C8DF80100200A8DF802008DF868
:1050600003406A4604214FF4757001F033FB08B128
:105070003046F8BD280E8DF80000280C8DF8010090
:10508000280A8DF802008DF803506A4604214FF477
:10509000767001F01FFBF8BDB037002009E3CA02AB
:1050A0002DE9FF4104463CA004F003030068029090
:1050B0003AA0006803903AA006683AA0056802A8E2
:1050C000C15C8DF80010C4F3C101425C8DF8012071
:1050D000C4F38112805C8DF8020003A8C35C8DF8D4
:1050E0000430415C8DF80510805C8DF806006A463E
:1050F000032140F2264001F0EDFA4FF0FF37E0BB0C
:1051000001AA032140F22A4001F0E4FAA8BBCDE94C
:10511000006560070BD59DF8000040F001008DF898
:1051200000009DF8040040F001008DF80400A00686
:105130000BD59DF8010040F001008DF801009DF8AD
:10514000050040F001008DF80500E0050BD59DF845
:10515000020040F001008DF802009DF8060040F0CA
:1051600001008DF806006A4603214FF4886001F0C3
:10517000B1FA10B901AA032100E004E040F2314085
:1051800001F0A8FA18B1384604B0BDE8F08106482D
:1051900004810020F8E700004CCD6C000CC92C0005
:1051A0003656760026466600B03700204FF47A72F5
:1051B00090FBF2F008B54843010E8DF80010010C89
:1051C0008DF80110010A8DF802108DF803006A466F
:1051D00004214FF4AE7001F07DFA08BD0521B0FB4B
:1051E000F1F008B5010A8DF800108DF801006A464B
:1051F00002214FF4AD7001F06DFA08BD0521B0FB3E
:10520000F1F008B5010A8DF800108DF801006A462A
:1052100002214FF4AC7001F05DFA08BD08B5002121
:105220008DF80010C10702D030218DF800108107E1
:1052300005D59DF8001041F00C018DF800104007D5
:1052400005D59DF8000040F003008DF800006A4687
:1052500001214FF4A47001F03DFA08BD08B560B11A
:10526000042800D90420401E8DF800006A46012160
:1052700040F24F1001F02EFA08BD0120F3E70000C4
:105280002DE9FC41054640074FF0FF367CD0B1F5D3
:10529000C86F79D8084604F00FF83E4903F0F6FECF
:1052A000074601A800F082FC9DF80400022806D001
:1052B00004280DD008282ED0102865D134E00E2106
:1052C000384604F0AEF903F0BFFF84B2324907E07C
:1052D0000D21384604F0A5F903F0B6FF2F4984B23A
:1052E000384603F0FDFF03F0AFFF210A8DF80010F0
:1052F00080B28DF80140010A8DF802108DF803008C
:10530000E8076C4620D0224602214FF4EA7001F0F3
:10531000E1F9C8BB11E00C21384604F082F903F032
:1053200093FF84B21E49DBE70B21384604F079F97C
:1053300003F08AFF84B21B49D2E7A21C02214FF47A
:10534000927001F0C7F9F8B9A8070DD56A46022195
:105350004FF4EC7001F0BEF9B0B9A21C02214FF479
:10536000947001F0B7F978B9680710D56A46022140
:105370004FF4EE7001F0AEF930B9A21C02214FF4E7
:10538000967001F0A7F910B13046BDE8FC8100200D
:10539000FBE7000000004843000040460000C04515
:1053A000000040450000C0440521B0FBF1F008B505
:1053B000010A8DF800108DF801006A4602214FF4B1
:1053C000EF7001F087F908BD0521B0FBF1F008B5D9
:1053D000010A8DF800108DF801006A4602214FF491
:1053E000ED7001F077F908BD2DE9FE430646264829
:1053F00001AB042240680D210078FDF7EDFE10B1ED
:105400000720BDE8FE839DF804101C2000EAD102AD
:105410009DF80710DFF87490C1F301131A438DF85B
:1054200000209DF80520C1F3810300EAD2021A434F
:105430008DF801209DF8062001F0030100EAD2005A
:1054400008430024124F8DF80200A0466D46285DE7
:1054500010B146F824900AE046F824800DE000BF21
:1054600056F82400394603F03BFF46F82400285D37
:10547000401E10F0FF002855F2D1641CE4B2032C4A
:10548000E5D30020BDE70000F00000207B14AE3E15
:105490001D5A843F2DE9FE4F05460120C14E8DF86F
:1054A00000004FF000088DF8018030680C46174668
:1054B000817C70686B4602220078FDF71AFF4FF07E
:1054C000FF3A00287AD1C820FBF7C8FC8DF800808D
:1054D00030686B460122C17B70680078FDF709FFD8
:1054E0000028EFD130686B4601224179706800785E
:1054F000FDF7FFFE0028E5D130686B460122817C74
:1055000070680078FDF7F5FE0028DBD130686B4647
:105510000122C17D70680078FDF7EBFE0028D1D133
:1055200030686B460122017970680078FDF7E1FE72
:105530000028C7D14FF00C098DF8009030686B46F9
:105540000122017970680078FDF7D3FE002835D17B
:105550000F20FBF783FCB06A6B460122407A8DF87E
:1055600000003068817870680078FDF7C2FE00287E
:1055700024D1B06A6B460122007A8DF800003068B1
:10558000417870680078FDF7B4FE002873D1B06AE6
:10559000807A0FB140F0E0008DF8000030686B4673
:1055A0000122817970680078FDF7A3FE002862D19E
:1055B0002FB1B06AC07A40F0E00001E04AE0182064
:1055C0008DF8000030686B460122C1797068007860
:1055D000FDF78FFEF0BB17B1C820FBF73FFC402062
:1055E0008DF8000030686B46012201797068007800
:1055F000FDF77FFE70BB78208DF8000030686B46A9
:105600000122417970680078FDF773FE10BB3220EB
:10561000FBF724FC8DF80080306847466B464179E3
:10562000706801220078FDF764FE98B931687068EF
:10563000B046897A00786B460222FDF7CDFD48B965
:10564000BDF80000AF6040BAB0FBF9F06F60C6B2C1
:105650002F6000E00FE0A76067602760002739E057
:10566000D8F80010D8F804006B46C97A00780C22EC
:10567000FDF7B2FD10B15046BDE8FE8FBDF8000049
:10568000236840BA00B2BDF80210BDF804201844E7
:10569000206049BA606809B20844606052BAA068E4
:1056A00012B21044A060BDF806002B6840BA01B2E7
:1056B000BDF80800BDF80A201944296040BA69689D
:1056C00000B20844686052BAA86812B210447F1C45
:1056D000FFB2A860B742C3D328688322C117090468
:1056E00041EA104100040023FAF7DEFD32460023B0
:1056F000FAF7DAFD286068688322C117090441EAD5
:10570000104100040023FAF7CFFD32460023FAF7D8
:10571000CBFD6860A8688322C117090441EA1041E3
:1057200000040023FAF7C0FD32460023FAF7BCFD5F
:10573000A86020684FF40065C117090441EA1041D0
:1057400000042A460023FAF7AFFD32460023FAF799
:10575000ABFD206060682A46C117090441EA104188
:1057600000040023FAF7A0FD32460023FAF79CFD5F
:105770006060A0682A46C117090441EA104100048C
:105780000023FAF791FD32460023FAF78DFDA06061
:10579000002802DDA0F5803001E000F58030A06037
:1057A000002069E7F00000202DE9F84F81462E48DF
:1057B0008846002540686B46032200780D21FDF7DE
:1057C0000BFD10B10720BDE8F88F9DF80000002404
:1057D00000F01F008DF800009DF801006FF00F0B26
:1057E00000F01F008DF801009DF802006E4600F0E9
:1057F0001F008DF802004FF0010A00BF59F8241075
:1058000058F82400081A00D5404203F03DFD5946DF
:1058100003F007FF0746305DC0B1144802E01449A9
:1058200003F05EFD315D491E11F0FF013155F6D1E7
:105830000146384603F02AFC4FF07E5103F01CFE6F
:105840000C4920F00040884205DC07E00A48384453
:10585000B0F1D97F02D90AFA04F00543641C032C85
:10586000CCDB2846AFE70000F00000200000C84174
:1058700054E3853F295C0F3E0000E0BE00B50246C0
:1058800000F00DF80346D01C00F009F843EAC0030D
:10589000901D00F004F843EA801080B200BD90F93A
:1058A0000010002902DD4FF00000704702DA4FF0CF
:1058B0000400704790F90110002902DD4FF001004B
:1058C000704702DA4FF00500704790F90200002897
:1058D00002DD4FF00200704702DA4FF00600704719
:1058E0004FF007007047FBF781FFFEF7B9F9FDF7AE
:1058F00039FDFDF7B3FDFDF7D1FDFDF729FEFDF7FD
:105900005BFEFDF78FFEFEF703F9FEF7C5FA00F028
:105910002DFFFDF717FD00F045FFFEE77047000083
:105920002DE9F041124C20F00101002594F82400EB
:1059300010B10020BDE8F081A07A4FF0FF3668B1C9
:105940000840277C2074884200D0354641B10120B0
:1059500001F010FC00F07EFB38B127743046E9E717
:10596000207D00B1012001F005FC2846E2E700009F
:10597000F00000202DE9F74F8EB00CA902A8CDE968
:1059800000010BAB03AA09A907A8FFF7D3F918B1C7
:10599000012011B0BDE8F08FBDF80800C0057DD52D
:1059A000039803F071FC6FF01D04214603F039FEEB
:1059B0008246049803F068FC214603F032FE8146DB
:1059C000059803F061FC214603F02BFE8046069803
:1059D00003F05AFC214603F024FE054601215046FF
:1059E00003F01FFE0646414603F07AFC04464FF0E2
:1059F0004041484603F074FC0746294603F070FC1A
:105A0000214603F0DBFA03F0ADFAFEF72DFD4FF06F
:105A1000663B5A463D4B02F0CBFF02F017FD0E9954
:105A200008600121404603F0FCFD4146009003F070
:105A300057FC04463846494603F052FC214603F021
:105A40001BFD4FF07E5103F0B9FA03F08BFA0746C5
:105A50000C463046494603F043FC0646294600986A
:105A600003F03EFC314603F0A9FA03F07BFA3A4614
:105A70002346FEF741FF5A46244B02F099FF02F0FD
:105A8000E5FC0F9908602946084603F029FC074603
:105A90004146084603F024FC064600E034E049464F
:105AA000084603F01DFC04465146084603F018FC66
:105AB000214603F083FA314603F0DEFC394603F059
:105AC000DBFC03F04FFA06460C462946504603F02D
:105AD00007FC05464146484603F002FC294603F010
